:020000040800F2
:10000000A01800209D0100083B2C000805230008D3
:10001000392C00085F0A00080139000800000000C0
:1000200000000000000000000000000005010008C2
:10003000A30A00080000000049010008613200081E
:10004000B7010008B7010008B7010008B7010008B0
:10005000B7010008B7010008B7010008B7010008A0
:10006000B7010008B7010008B7010008B701000890
:10007000B7010008B7010008610A00086D0A00080E
:10008000B7010008B7010008B7010008B701000870
:10009000B7010008B7010008B7010008A50A000869
:1000A000B7010008B7010008B7010008B701000850
:1000B000ED320008F932000805330008B7010008E6
:1000C000B7010008B7010008B7010008B701000830
:1000D000B7010008B9380008B7010008B7010008E7
:1000E000B7010008B7010008B7010008DFF810D019
:1000F00000F052FC004800478F480008AFF3008032
:10010000A0180020224B19680868B0E8F00F80F3AF
:100110000988BFF36F8F4FF0000080F311884EF015
:100120000D0E70470000000006480068006880F36C
:10013000088862B661B6BFF34F8FBFF36F8F00DFE1
:1001400000BF00BF08ED00E0EFF30980BFF36F8F41
:100150000F4B1A6820E9F00F106008B54FF05000FF
:1001600080F31188BFF34F8FBFF36F8F05F094FEBC
:100170004FF0000080F31188BDE808401968086856
:10018000B0E8F00F80F30988BFF36F8F704700BFAE
:1001900074000020EFF30580704700000648804798
:1001A00006480047FEE7FEE7FEE7FEE7FEE7FEE75C
:1001B000FEE7FEE7FEE7FEE7EB320008ED00000891
:1001C000202A04DB203A21FA02F00021704721FAAC
:1001D00002F3D040C2F12002914008431946704713
:1001E00040EA01039B0703D009E008C9121F08C0B9
:1001F000042AFAD203E011F8013B00F8013B521E39
:10020000F9D27047D2B201E000F8012B491EFBD2AF
:1002100070470022F6E710B513460A460446194611
:10022000FFF7F0FF204610BD30B50446002003461E
:1002300000E05B1C934203D2E05CCD5C401BF8D035
:1002400030BDF0B480EA0102D40F4200B2EB410F9E
:1002500002D20246084611464A0042D0C30DDDB222
:10026000C1F3C752AD1A202D35DAC1F3160141F49E
:10027000000204B15242C5F1200602FA06F12A41F9
:100280001044B3EBD05F23D0C4B1012DA0EBC35019
:1002900009DCF0BC4FF0004202EAC352DBB200F5C9
:1002A000000000F0BEBA400000F1807000EBC350C7
:1002B000A0F1807040EAD170490009E0490841EAA4
:1002C000C071A0EBC35000F50000400800EBC35024
:1002D000F0BC00F09DBA6142012202EB4101001B1B
:1002E000F6E7F0BC704781F00041AAE780F00040DB
:1002F000A7E780EA010210B502F00043400022D0D7
:100300004A001FD0010E01EB1261C0F35600C2F388
:10031000560240F4000042F40002A0FB0220000458
:100320007F39140400D0401C50EA124001D4400030
:10033000491EC2B20C0604EBD010401C4008802AB3
:1003400002D003E0002010BD20F00100002900DAF7
:100350000020184310BD30B480EA010202F00045CD
:1003600030F0004221F0004013D090B1C30DD40D05
:10037000C2F31601C0F31600E41A41F4000140F480
:1003800000027D34914201D3641C00E04900002C3E
:1003900002DA30BC002070474FF400000023914285
:1003A00001D3891A034340084FEA4101F7D151B103
:1003B000914202D14FF0004105E002D24FF001011D
:1003C00001E06FF0010103EBC450284430BC00F0A1
:1003D0001FBA420005D0C0F3C7525242914201DC1D
:1003E0000020704700EBC15070472DE9FE4F80465A
:1003F00081EA0300C00F0C46009021F0004123F079
:100400000045B8EB0200A94105D24046214690467E
:100410001C460B46024623F00040104347D0270DF0
:10042000C7F30A00C3F30A510290401A0190402812
:100430006BDAC3F3130040F4801B0098924620B19E
:100440000023D2EB030A63EB0B0B01985946C0F172
:100450004002504600F0BBF906460D46504659464C
:10046000019A00F0C3F910EB08006141002487EA0B
:10047000115284EAE7731A4340D0009A62B3019A9A
:10048000012A4FEA075215DC001B61EB02014FF015
:10049000004202EA0752CDE90042001C41F58011FA
:1004A00032462B4600F0FAF903B0BDE8F08F404623
:1004B0002146F9E7001B61EB0201001C41F58013A6
:1004C00000185B412018A2F5001747EB030140EA32
:1004D000D570B6196D4111E06D084FEA360645EA50
:1004E000C0754FEA0752001B61EB0201001C41F589
:1004F000801149084FEA30000019514132462B461D
:1005000003B0BDE8F04F00F0BAB9009801224000F6
:100510000023D0EB020263EBE073009821464FEA20
:10052000E074B8EB000061EB0401E9E783F00043FD
:100530005BE781F0004158E72DE9FE4F81EA0304B3
:1005400004F0004421F0004100944FF0000B23F030
:10055000004350EA01045ED052EA03045BD0C3F3C7
:100560000A54C1F30A552C44A4F2F3340194A0FBBD
:100570000254C1F3130141F48011C3F3130343F494
:10058000801301FB024400FB034E840A970A44EAED
:10059000815447EA8357A4FB076802958D0A05FB3F
:1005A00007854FEA932C04FB0C542705029D4FEA64
:1005B000065847EA1637B5EB08056EEB070C870EB1
:1005C000920E47EA811742EA8312A7FB0201B6EBBB
:1005D0000B0164EB00042B0D43EA0C335E1844EB73
:1005E0001C50DA465146E7FB0201C5F313044FEAFB
:1005F0000B3343EA14534FEA0432019C43EA0603E7
:10060000A4F10C040294009CCDE900B400F046F97A
:1006100003B0BDE8F08F00200146F9E72DE9F04D69
:1006200081EA030404F0004B21F0004514464FF02A
:10063000000A23F0004150EA050220D054EA0102EA
:100640001DD0C5F30A570246C5F31303C1F31300C7
:10065000C1F30A5640F4801543F48013A7EB060853
:10066000101BD64608F2FD3873EB050002D308F1E3
:10067000010801E092185B41B8F1000F03DA002095
:100680000146BDE8F08D00204FF4801106468446F7
:100690000EE0171B73EB050705D3121B63EB050375
:1006A00006434CEA010C49084FEA300092185B41BE
:1006B00050EA0107EDD152EA030012D082EA0400A9
:1006C00083EA0501084305D0101BAB4106D2012285
:1006D000002306E000224FF0004302E06FF0010229
:1006E00053101AEB06004CEB085110EB0A0041EBDB
:1006F0000B01BDE8F04D00F0C2B8C10F80EAE07018
:100700000844CA079623002100F08BB896230022E4
:10071000114600F086B800F0004220F00040C10D04
:10072000C0F3160040F400007F2901DA0020704772
:10073000962903DCC1F19601C84001E09639884052
:10074000002AF4D04042704720F00040C10DC0F3B1
:10075000160040F400007F2901DA00207047962936
:1007600003DCC1F19601C840704796398840704754
:1007700000F0004230F000400AD0C10D01F5607178
:10078000C0F3160042EA0151C20840071143704706
:1007900000200146704701F0004330B421F00041D1
:1007A00050EA010206D00A0DA2F56072C1F31301EE
:1007B000002A02DC30BC00207047440F44EAC10428
:1007C000C100E01830BC00EBC25000F021B8202A74
:1007D00004DB203A00FA02F1002070479140C2F198
:1007E000200320FA03F3194390407047202A06DBC8
:1007F000CB17203A41FA02F043EAE07306E041FAEF
:1008000002F3D040C2F120029140084319467047DC
:100810000029A8BF7047401C490008BF20F0010014
:10082000704710B4B0FA80FC00FA0CF050EA0104F2
:1008300004BF10BC704749B1CCF1200421FA04F484
:1008400011FA0CF118BF012121430843A3EB0C015D
:10085000CB1D4FEA00614FEA102042BF002010BCC0
:10086000704700EBC35010440029A4BF10BC704770
:10087000401C490008BF20F0010010BC704710B5B3
:10088000141E73F1000408DA401C41F100019218B3
:100890005B411A4301D120F0010010BD2DE9F04D5C
:1008A00092469B4611B1B1FA81F202E0B0FA80F2B1
:1008B00020329046FFF78BFF04460F4640EA0A00BD
:1008C00041EA0B0153465A46084313D0114653EAF6
:1008D000010019D0C8F140025046FFF771FC0546EF
:1008E0000E46504659464246FFF771FF084305D071
:1008F000012004E020463946BDE8F08D0020054384
:1009000046EAE0762C4337430A986305E40AA0EBF5
:1009100008000022FD0A44EA47540A3002D50020AC
:100920000146E9E7010510196941DDE908450019AB
:100930006941BDE8F04DA2E770B521F000430343E3
:100940000CD0C1F30A550024D5EB040564EB040375
:10095000D617AD1AB34102DB0020014670BD201846
:1009600041EB025170BD000030B5041E71F100046E
:1009700004DB4FF00044404264EB0101141E73F1AC
:10098000000405DB1C464FF00043524263EB0403B6
:100990008B4208BF824230BD064C074D06E0E0683E
:1009A00040F0010394E8070098471034AC42F6D3B6
:1009B000FFF7A0FB887B0008A87B00082DE9F04D1D
:1009C00000231A461B1A8A4103DB00200146BDE8BA
:1009D000F08DC1F30A52C1F3130141F480154FF0B9
:1009E000000BD10702D100186D41521E00270446AA
:1009F00040F2FF11384601EB620A3E46804602464D
:100A000000204FF48011FFF7DBFBC2197141BB18C6
:100A100046EB0100B4EB030C75EB000C04D3E41AB5
:100A200065EB000517460E46241908F101006D41DB
:100A300080463428E3DDF91946EB0600091BA8417E
:100A400003D24FF0FF32134601E0002213461BEBA6
:100A5000070046EB0A51BDE8F04DFFF710BFFEE777
:100A6000014800F0ABB8000064050020014800F028
:100A7000A5B800002005002030B590F840500124B2
:100A8000AC40C56B6C60046863604368102B0368FE
:100A900003D099600068C26030BD9A600068C16090
:100AA00030BD7047202000F0ADB972B6FEE70028D7
:100AB00000DC404200B27047064A13685B6A03805C
:100AC000054803685B6A0B80126800215162006868
:100AD0004162704774030020BC03002010B590F8F9
:100AE00021100022022905D00421816380F82020F2
:100AF000012010BD01680B6823F00E030B60016834
:100B00000B6823F001030B6090F84030C46B0121A7
:100B100001FA03F3636080F8211080F8202010466A
:100B200010BD000010B590F821100024022903D058
:100B30000421816301243DE001680A6822F00E026D
:100B40000A6001680A6822F001020A601A4A016814
:100B5000914201D1012121E0174A1432914201D181
:100B600010211BE0144A2832914201D1891515E069
:100B7000114A3C32914201D189140FE00E4A5032A1
:100B8000914202D14FF4803108E00B4A6432914225
:100B900002D14FF4801101E04FF08071064A083A0B
:100BA0005160012180F82110002180F82010416B54
:100BB00001B18847204610BD080002402DE9F05FD2
:100BC000C16B0C6801680B68D0F840C0042202FABF
:100BD0000CF2494DDFF824A1494E4A4FDFF828B105
:100BE000DFF828E122422CD05A072AD50A6892065B
:100BF00003D40A6822F004020A600168A94201D104
:100C0000042219E0514501D1402215E0B14202D140
:100C10004FF4806210E0B94202D14FF480420BE001
:100C2000594502D14FF4802206E0714502D14FF4BC
:100C3000800201E04FF080622F4908394A60C16AA2
:100C40003BE04FF0020808FA0CF818EA040F4FF0E6
:100C500000094FF0010235D05FEA837832D50B6886
:100C60009B0605D40B6823F00A030B6080F8212053
:100C70000168A94201D1022219E0514501D1202287
:100C800015E0B14202D14FF4007210E0B94202D136
:100C90004FF400520BE0594502D14FF4003206E008
:100CA000714502D14FF4001201E04FF00072124979
:100CB00008394A6080F82090816A00291AD0BDE87E
:100CC000F05F0847082505FA0CF5254212D01B07EE
:100CD00010D50B6823F00E030B6090F84010C36B27
:100CE00002FA01F15960826380F8212080F8209097
:100CF000016BE2E7BDE8F09F080002401C000240E3
:100D00003000024044000240580002406C000240A3
:100D100030B528B308C8134914221944B1FBF2F1C5
:100D20008900C16310498163022141771A6843F643
:100D3000F0718A43D0E900142143D0E902452C43E5
:100D400021430469214344692143846921431143B8
:100D5000196000214163012242770177084630BDC6
:100D6000012030BDF8FFFDBF0000024070B5044611
:100D700090F82000002501280CD0012084F82000E4
:100D800094F821600020012E06D084F8200002256E
:100D9000284670BD022070BD022684F82160A06341
:100DA0002068066826F0010606602046FFF764FE0C
:100DB000E06A00282068016802D041F00E0106E0D8
:100DC00021F0040101602068016841F00A0101601E
:100DD0002068016841F001010160D9E770B504465F
:100DE00000F016F90546601C02D00448007804445F
:100DF00000F00EF9401BA042FAD370BD2C00002079
:100E000070470000044910B50A68024202D0086029
:100E1000FFF7F6FF10BD0000140401402DE9F84F64
:100E2000DFF8B8910024A9F1040B23460F2709F13C
:100E3000040AABF1040EC9E00125A5402A40AA42EC
:100E40007DD1674ED1F804C0ACEB0608B44532D072
:100E500014DCBCF1030F3AD009DCBCF1000F2AD03E
:100E6000BCF1010F1CD0BCF1020F31D11DE0BCF16F
:100E7000110F17D0BCF1120F2AD119E0B8F5881F55
:100E800019D006DCB8F5803F15D0B8F5801F1FD10A
:100E900011E0B8F5001F0ED0B8F5041F18D10AE014
:100EA000CB6815E0CB681B1D12E0CB6808330FE060
:100EB000CB680C330CE08B682BB1012B4FF008038F
:100EC00003D0456104E0042302E0056100E0002353
:100ED000FF2A01D8064601E000F104064FEA840526
:100EE00001D9A5F12005D6F8008007FA05FC28EA0B
:100EF0000C0803FA05F548EA0508C6F800804D68B5
:100F0000ED0062D5374DAE6946F00106AE61AD69C0
:100F100024F0030605F001050095334D06EB050CA2
:100F2000DCF80850A607360F07FA06F825EA080588
:100F3000DFF8B880404503D14FF0000817E044E0E7
:100F4000DFF8AC80404502D14FF001080FE0DFF838
:100F5000A480404502D14FF0020808E0DFF89880F5
:100F6000404502D14FF0030801E04FF0040808FAB1
:100F700006F848EA0508CCF808804D68D9F8006002
:100F8000ED024D4601D5164300E096432E604D68B4
:100F9000DAF80060AD02554601D5164300E09643ED
:100FA0002E604D68DBF80060AD035D4601D5164349
:100FB00000E096432E604D68DEF80060ED03754654
:100FC00001D5164300E096432E60641C0D682A4646
:100FD000E5407FF431AFBDE8F88F00000804014020
:100FE0000000111000100240000001400008014004
:100FF000000C0140001001400014014080680840CE
:1010000000D0012070470AB1016170470904FBE775
:1010100001488068704700002C0000200248816869
:1010200002781144816070472C000020074810B5F9
:10103000016841F010010160032000F0A7F80F20C3
:1010400000F006F800F050F8002010BD002002402B
:1010500030B50546204887B0C16941F00101C16142
:10106000C06906A900F00100009001A800F036F95F
:101070000498B8B100F052F9400018494FF080428E
:10108000B0FBF1F11648491E0260416040F2E732C0
:101090000021C0E903218160816100F075FB04003B
:1010A00003D015E000F03AF9E7E70D4800F0AEFB99
:1010B00004000DD11C2000F03BF8102D07D20022B7
:1010C00029461C2000F042F80648056000E0012493
:1010D00007B0204630BD00000010024040420F0023
:1010E000A8050020300000200F4808B5816941F0B4
:1010F00001018161816901F001010091C16941F043
:101100008051C161C069002200F0805000900F2121
:10111000901E00F01BF80548416821F0E06141F0A5
:101120008061416008BD00000010024000000140E5
:10113000002809DB00F01F020121914040098000D6
:1011400000F1E020C0F8001170470000F0B40E4B31
:101150001B680C46C3F30223C3F10705042D00D915
:101160000425191D072901D2002300E0DB1E0126FA
:1011700006FA05F1491E214099409E40761E164010
:101180003143F0BC02F0D1BB0CED00E0064900F0A9
:10119000070208684FF6FF03184040EA0220034A9E
:1011A00010430860704700000CED00E00000FA05F5
:1011B0002DE9F0470F46050061D0434E306800F03E
:1011C0000700B84209D2306820F007003843306089
:1011D000306800F00700B84251D128683B4C8107C5
:1011E00012D5400703D5606840F4E060606028785D
:1011F000000703D5606840F4605060606068A968CB
:1012000020F0F000084360602878C00728D06868A4
:10121000012810D02168022810D0890700292EDA71
:10122000616821F0030101436160FFF7F1FE804630
:1012300041F288390DE021688903EFE78901EDE784
:10124000FFF7E6FEA0EB0801494502D90320BDE8FF
:10125000F0876068696800F00C00B0EB810FEFD197
:10126000306800F00700B8420BD9306820F0070062
:1012700038433060306800F00700B84201D00120E8
:10128000E5E72878400705D56068E96820F4E06064
:10129000084360602878000706D56068296920F453
:1012A000605040EAC100606000F058F86168084A88
:1012B000C1F30311515CC840064908600648006844
:1012C000FFF7C6FE0020C2E70020024000100240E7
:1012D0005E7A000870000020300000200F220260BB
:1012E0000C4A536803F003034360536803F0F003B0
:1012F0008360536803F4E063C36052684FF4E063B3
:1013000003EAD20202610448006800F007000860A6
:1013100070470000001002400020024004480549C8
:1013200000684968044AC1F30221515CC840704713
:1013300070000020001002406E7A00080448054941
:1013400000684968044AC1F3C221515CC840704733
:1013500070000020001002406E7A00080E4A5168AA
:101360000E4801F00C03042B11D0082B0FD10C48B0
:10137000C1F38343C903C05C0AD55168084AC1F36D
:101380004041921E515C054A5043B0FBF1F070475A
:1013900004494843704700000010024000127A00E0
:1013A0001668000800093D002DE9F84F040070D0D0
:1013B0002078C04DC00749D06868C0F3810001287B
:1013C00007D06868C0F38100022809D16868C003AB
:1013D00006D52868800339D560680028E7D035E055
:1013E0006068B0F5803F0BD010B1B0F5A02F11D0E0
:1013F000286820F480302860286820F4802002E0EB
:10140000286840F480302860606890B1FFF700FEE3
:1014100006460AE0286840F480202860F0E700BF14
:10142000FFF7F6FD801B642873D828688003F7D582
:101430000CE0FFF7EDFD064605E000BFFFF7E8FD15
:10144000801B6428F0D828688003F7D420789A4E4F
:1014500080074FF001094FF0000839D5686810F097
:101460000C0F07D06868C0F38100022809D16868B2
:10147000C00306D42868800714D52069012808D144
:1014800010E02069B0B1C6F80090FFF7C1FD074633
:1014900005E00AE1FFF7BCFDC01B0228C4D828689C
:1014A0008007F7D52868616920F0F80040EAC1009C
:1014B00028600DE0C6F80080FFF7AAFD074604E0AB
:1014C000FFF7A6FDC01B022823D828688007F7D4A1
:1014D000207800072CD57948A169D9B1C0F80090CF
:1014E000FFF796FD074604E0FFF792FDC01B0228B8
:1014F0000FD8686A8007F7D571484FF4FA51006831
:10150000B0FBF1F0009000BF0098411E0091FAD2AC
:101510000EE080E0C0F80080FFF77AFD074604E0A7
:10152000FFF776FDC01B022875D8686A8007F7D4DC
:101530002078400760D5E8690027C00008D4E86932
:1015400040F08050E861E869012700F08050009089
:101550005C480168C90513D40168834641F4807171
:101560000160FFF755FD824606E000BFFFF750FD22
:10157000A0EB0A0064284ED8DBF80000C005F5D5C2
:10158000E06801280AD008B1052813D0286A20F0A5
:1015900001002862286A20F0040002E0286A40F076
:1015A00001002862E06841F2883B98B1FFF730FD06
:1015B00082460BE0286A40F004002862EEE700BF94
:1015C000FFF726FDA0EB0A0159455AD8286A800783
:1015D000F6D50CE0FFF71CFD824605E0FFF718FD8D
:1015E000A0EB0A0159454CD8286A8007F6D41FB1F0
:1015F000E86920F08050E861E06988B36968C1F368
:101600008101022944D00228C6F8608004D0FFF787
:10161000FFFC044638E034E0FFF7FAFC074604E03C
:10162000FFF7F6FCC01B02282BD828688001F7D4EE
:10163000206AB0F5803F05D16868A16820F40030C9
:1016400008436860D4E908010843696821F474110B
:1016500008436860C6F86090FFF7DAFC044606E0CD
:1016600025E000BFFFF7D4FC001B022809D828683A
:101670008001F7D51BE000BFFFF7CAFC001B022862
:1016800002D90320BDE8F88F28688001F4D40EE069
:101690000128F7D06868226A00F48031914204D1B1
:1016A000616A00F47010884201D00120EAE700204E
:1016B000E8E700000010024000004242800442427D
:1016C00070000020007000407047704710B590F81F
:1016D0003C20012A22D0012280F83C20CA688C6874
:1016E00022F4407222434C6822F4806222430C6848
:1016F00022F4006222430C6922F4805222434C6996
:1017000022F400522243C969002322F480420A4392
:1017100001684A6480F83C30002010BD022010BDF2
:1017200070B590F83C20012A26D0012480F83C4076
:10173000022280F83D2003685A689D6822F07006F6
:101740000A6832435A600D4B02689A4208D0B2F1DF
:10175000804F05D00A4B9A4202D00A4B9A4204D1DC
:10176000496825F080031943916080F83D400021CD
:1017700080F83C10084670BD022070BD002C01406E
:10178000000400400008004010B5040003D094F8A5
:101790003D0010B107E0012010BD002084F83C009E
:1017A000204600F01FF8022084F83D00211D20682B
:1017B00001F0AEFD012084F8460084F83E0084F874
:1017C0003F0084F8400084F8410084F8420084F827
:1017D000430084F8440084F8450084F83D0000206C
:1017E00010BD000008B500680649884208D10648C7
:1017F000816941F400618161806900F400600090BA
:1018000008BD0000002C01400010024090F83D107F
:10181000012901D001207047022180F83D100168A4
:10182000CA6842F00102CA6000680B49884208D0C9
:10183000B0F1804F05D00949884202D0084988425A
:1018400004D1816801F00701062903D0016841F045
:101850000101016000207047002C0140000400409D
:101860000008004070B5044690F83C0000250128AF
:1018700017D0012684F83C60022084F83D002068DF
:10188000826822F0770222F47F4282600868502842
:1018900038D00DDC20284FD005DC90B3102811D1B2
:1018A0004AE0022070BD302846D040280AD13BE0F3
:1018B00060282FD070280DD0B0F5805F03D0B0F530
:1018C000005F12D0012584F83D60002084F83C00C0
:1018D000284670BDCB68D1E90121206801F05BFD8D
:1018E0002068816841F0770109E0CB68D1E90121E6
:1018F000206801F050FD2068816841F480418160DA
:10190000E1E719E0CA684968206801F0F9FD502153
:10191000206806E0CA684968206801F002FE60217C
:10192000206801F042FDCEE7CA684968206801F0EE
:10193000E7FD40212068F4E7226801461046F0E701
:101940002DE9F0410D46040003D094F83D0018B194
:1019500008E00120BDE8F081002084F83C0020462A
:1019600000F040F8022084F83D002068816844F2CD
:10197000070291438160211D206801F0C9FC2268A3
:1019800090689169166A2B68AF69034340F203308F
:10199000814341EA0721A868EF6908434FF6FC41FB
:1019A0008843E96840EA0720014328692F6A00015B
:1019B00040EA0730084369686D6926F0220646EA66
:1019C0000515294393602268906154F8460B016223
:1019D000012004F81F09E0752076E0762077A075D5
:1019E0000020B7E700B585B0002100910191029178
:1019F0000391224B02682248C0219A421BD1C2693E
:101A000042F00202C261C26902F0020204928269DB
:101A100042F0040282618069009100F004000490A9
:101A200069461848FFF7FAF9002205211D20FFF743
:101A30008DFB1D201DE0144B9A421CD1C26942F05F
:101A40000402C261C26902F004020492826942F097
:101A5000080282618069009100F0080004906946E4
:101A60000A48FFF7DBF9002205211E20FFF76EFB75
:101A70001E20FFF75DFB05B000BD00000004004024
:101A8000001002400008014000080040000C014026
:101A900070B590F83E60044690F83F5090F84230A0
:101AA00090F84320022021B104290ED0012E1BD131
:101AB00014E0012E18D1012B16D184F83E0084F8D1
:101AC000420001220021206820E0012D0CD1012AD2
:101AD0000AD184F83F0084F8430014E0012D03D1BB
:101AE000012B01D1012A01D0012070BD84F83E00F4
:101AF00084F83F0084F8420084F84300012200216A
:101B0000206801F03BFC01220421206801F036FC32
:101B10002068016841F001010160002070BD70473C
:101B200070B50446006801694FF00005C943890794
:101B300015D4C168C943890711D4E91E0161012088
:101B40002077206880698007204602D0FFF7E7FFF2
:101B500004E000F0BFF8204600F051F92577206836
:101B60000169C943490717D4C168C943490713D458
:101B70006FF004010161022020772068806910F471
:101B8000407F204602D0FFF7CAFF04E000F0A2F831
:101B9000204600F034F9257720680169C943090718
:101BA00016D4C168C943090712D46FF00801016156
:101BB000042020772068C0698007204602D0FFF704
:101BC000AEFF04E000F086F8204600F018F9257713
:101BD00020680169C943C90617D4C168C943C90649
:101BE00013D46FF010010161082020772068C069CC
:101BF00010F4407F204602D0FFF791FF04E000F090
:101C000069F8204600F0FBF8257720680169C94390
:101C1000C90708D1C168C943C90704D1891E016138
:101C2000204600F03BF920680169C943090609D440
:101C3000C168C943090605D46FF0800101612046DF
:101C4000FFF742FD20680169C943490609D4C1680C
:101C5000C943490605D46FF040010161204600F0F8
:101C600024F920680169C94389060BD4C168C943B6
:101C7000890607D46FF0200101612046BDE870405D
:101C8000FFF723BD70BD000000B585B000210091B5
:101C900001910291039100680B49884212D10B48CF
:101CA000816941F0040181618069694600F00400A6
:101CB00004904FF4106000900220019003900448BB
:101CC000FFF7ACF805B000BD002C01400010024049
:101CD00000080140704770B5044690F83C000026AB
:101CE0000D4601280FD0012084F83C006AB1042A77
:101CF0001DD0082A2FD00C2A3FD00126002084F8BE
:101D00003C00304670BD022070BD206801F056FBDB
:101D10002068816941F0080181612068816921F0B2
:101D200004018161206881692A69114311E02068FA
:101D300001F06CFB2068816941F4006181612068D9
:101D4000816921F480618161206881692A6941EAA1
:101D500002218161D2E7206801F084FB2068C1691B
:101D600041F00801C1612068C16921F00401C1612D
:101D70002068C1692A69114311E0206801F09EFBC7
:101D80002068C16941F40061C1612068C16921F422
:101D90008061C1612068C1692A6941EA0221C1618B
:101DA000ACE710B5040003D094F83D0010B107E093
:101DB000012010BD002084F83C00204600F01EF8F1
:101DC000022084F83D00211D206801F0A1FA0120C5
:101DD00084F8460084F83E0084F83F0084F8400010
:101DE00084F8410084F8420084F8430084F84400F9
:101DF00084F8450084F83D00002010BD704770470E
:101E000010B50446022249B104290ED0082913D086
:101E100094F84100012816D0012010BD94F83E002E
:101E20000128F9D184F83E200FE094F83F00012802
:101E3000F2D184F83F2008E094F840000128EBD16B
:101E400084F8402001E084F841200122206801F05C
:101E500095FA0F492068884203D1426C42F400424F
:101E600042642068884208D0B0F1804F05D009490B
:101E7000884202D00849884204D1816801F00701F4
:101E8000062903D0016841F001010160002010BD66
:101E9000002C014000040040000800400068B0F140
:101EA000804F01D1FFF7BAB870477047704710B53F
:101EB00004460068406994F84110C0F3C01021291D
:101EC00011D180B12068143050E8001F21F080014A
:101ED00040E80012002AF5D1A06B08B1FEF7FEFD24
:101EE000204601F0D6FB2068406994F84210C0F308
:101EF0008010222911D180B12068143050E8001FD1
:101F000021F0400140E80012002AF5D1E06B08B151
:101F1000FEF7E4FD204601F095FB002010BD704760
:101F2000F8B5016804460868CA684B6910F00F0FDD
:101F30004FF0000559D003F0010602F490773743C3
:101F400065D0C10705D0D10503D5616C41F0010111
:101F50006164410705D5D90703D0616C41F00201E6
:101F60006164810705D5D90703D0616C41F0040194
:101F70006164010707D502F02001314303D0616C91
:101F800041F008016164616C00293AD0800604D5F3
:101F9000900602D5204601F08AFB20684069616CFA
:101FA000C0F38010090700D460B3204601F04AFB5B
:101FB00020684069400621D52068143050E8001F91
:101FC00021F0400140E80012002AF5D1E06BA8B1F1
:101FD0006D494163E06BFEF7A5FD002811D0E06B71
:101FE000416B01B0BDE8F040084783060FD593066A
:101FF0000DD52046BDE8F84001F059BB2046FFF75B
:102000008EFFF8BD2046FFF78AFF6564F8BD266B9A
:102010002023012E7CD1C6067AD5D60678D508684D
:102020004868009048694FF00206400640D5E16BD1
:10203000086840680004000CE8D0A28D8242E5D90F
:10204000E085886920282DD020680C3050E8001FDA
:1020500021F4807140E80012002AF5D12068143084
:1020600050E8001F21F0010140E80012002AF5D1DC
:102070002068143050E8001F21F0400140E80012B1
:10208000002AF5D184F84230256320680C3050E8EE
:10209000001F21F0100140E80012002AF5D1E06B8A
:1020A000FEF71CFD6663A08DE18D401A81B22AE027
:1020B000A08DE18D401A81B2E08D0028A6D00029C4
:1020C000A4D022680C3252E8000F20F4907042E84D
:1020D0000007002FF5D12068143050E8002F22F0BF
:1020E000010240E80027002FF5D184F84230256333
:1020F00020680C3050E8002F22F0100240E8002346
:10210000002BF5D166632046FFF7D0FEF8BDFFE750
:1021100005062BD5150629D594F841002128F5D1BF
:10212000A068B0F5805F01D12069B0B1206A411C80
:102130002162216800784860E08C401E0004000C99
:10214000E084E3D12068C16821F08001C16020688B
:10215000C16841F04001C160D8E7206A0088C0F33F
:1021600008004860206A801C2062E5E74006CDD563
:102170005006CBD5CA68204622F04002CA6084F8D7
:10218000413000F0B3F8C1E74735000870B50400EE
:1021900004D094F84100002510B106E0012070BD84
:1021A00084F84050204600F023F8242084F84100B1
:1021B0002068C16821F40051C160204601F0D8FABE
:1021C0002068016921F4904101612068416921F092
:1021D0002A0141612068C16841F40051C160656411
:1021E000202084F8410084F842006563002070BD1F
:1021F000F0B585B00024064600940194029403943F
:1022000000682D49884254D12C48816941F48041AD
:102210008161816901F480410491816941F0040187
:1022200081618069264D00F0040004904FF4007035
:102230000090022001900320039069462846FEF793
:10224000EDFD2815CDE90004694628460294FEF705
:10225000E5FD1D4D1B488027C5E90004C5E902477F
:102260002C616C61AC612846EC61FEF751FD08B150
:10227000FEF71BFCF5636E62134D124844351438AB
:1022800001C5102091C5104845F8104944306C61D3
:10229000AC61EC61FEF73CFD08B1FEF706FCB563EE
:1022A0000022052125206E62FEF750FF2520FEF753
:1022B0003FFF05B0F0BD00000038014000100240B3
:1022C00000080140580002402005002090F84230EC
:1022D000202B01D00220704721B11AB100230363E3
:1022E00001F0A2BA012070477047704700680349A7
:1022F000884202D10249012008707047003801402D
:102300002A000020FEE7B0F9001041F65832914251
:1023100002DC5242914200DA0280704770B50D46ED
:10232000002801DD002100E00121002D01DD002455
:1023300000E00124FEF7BBFB80B200F04FFE284610
:10234000FEF7B5FB2146BDE8704080B200F066BEE6
:102350007CB514460D4606466B460622432168208E
:1023600000F098F900280BD1BDF8001049BA31806F
:10237000BDF8021049BA2980BDF8041049BA21807D
:102380007CBD000010B5114C002210212046FEF744
:102390003AFE206820F470002060206840F440106D
:1023A0002060002000F070F8022000F03DFC0122C7
:1023B00010212046FEF727FE022000F035FC2046C3
:1023C0000022BDE810401021FEF71DBE00080140AC
:1023D00010B5114C002210212046FEF714FE206893
:1023E00020F470002060206840F44010206001203C
:1023F00000F04AF8022000F017FC012210212046CC
:10240000FEF701FE022000F00FFC20460022BDE88E
:1024100010401021FEF7F7BD000801402DE9F04102
:10242000184C07460025206820F4700020602068C2
:1024300040F4000020602E46002210212046FEF7C6
:10244000E2FD022000F0F0FB012210212046FEF701
:10245000DAFD6806050E20212046FEF7CFFD08B103
:102460006D1CEDB2022000F0DFFB761CF6B2082EE8
:10247000E2D327B1FFF786FF2846BDE8F081FFF7DA
:10248000A7FFF9E700080140024620210148FEF7B6
:10249000BABD00000008014070B5154E0546304633
:1024A000316821F470013160316841F440113160CC
:1024B00000221021FEF7A7FD0024E809FFF7E4FF42
:1024C0006806050E012210213046FEF79CFD022011
:1024D00000F0AAFB002210213046FEF794FD0220F6
:1024E00000F0A2FB641CE4B2082CE6D370BD00002F
:1024F0000008014010B5104C206820F470002060E6
:10250000206840F4401020600120FFF7BDFF012249
:1025100010212046FEF777FD022000F085FB002009
:10252000FFF7B2FF022000F07FFB20460022BDE84B
:1025300010401021FEF767BD0008014010B5104C97
:10254000206820F470002060206840F44010206073
:10255000002210212046FEF756FD0020FFF794FFD1
:10256000022000F061FB012210212046FEF74BFD06
:102570000120FFF789FFBDE81040022000F054BBA6
:102580000008014070B5174C0025206820F4700049
:102590002060206840F4000020600120FFF774FFF5
:1025A000022000F041FB012210212046FEF72BFD06
:1025B000022000F039FB07E06D1CEDB2FA2D03D9C3
:1025C000FFF7BCFF012070BD20212046FEF716FD5D
:1025D0000028F1D1002210212046FEF714FD002032
:1025E00070BD00000008014010B580216B2000F094
:1025F000C0F86420FEF7F2FB00216B2000F0B9F870
:10260000032000F082F8002000F07AF8C82000F0E3
:1026100099F80021382000F0ACF800216A2000F081
:10262000A8F80021232000F0A4F88021372000F032
:10263000A0F8752000F011F8682801D0012010BD25
:1026400001216B2000F095F800216C2000F091F83A
:10265000C82000F077F8002010BD10B50446FFF741
:1026600049FFD020FFF718FFFFF78CFF2046FFF748
:1026700013FFFFF787FFFFF73DFFD120FFF70CFFA8
:10268000FFF780FF0020FFF7C9FE0446FFF756FF63
:10269000204610BD2DE9F0411D4614460F46064662
:1026A000FFF728FF7006000EFFF7F6FEFFF76AFF40
:1026B00020B1FFF743FF0120BDE8F0813846FFF766
:1026C000EBFEFFF75FFFFFF715FF012000EB460071
:1026D000C0B2FFF7E1FEFFF755FF09E0012C0DD076
:1026E0005FF00100FFF79AFE641E05F8010BE4B2EB
:1026F000002CF3D1FFF722FF0020DDE70020F1E7F7
:10270000C006010E1C2000F034B8C006010E1B20CC
:1027100000F02FB8BC2801D3012110E0622801D3BA
:1027200002210CE02A2801D3032108E0142801D358
:10273000042104E00A2801D3052100E006211A2023
:1027400000F017B810B504464FF47A70844201D9EE
:10275000044602E0042C00D20424B0FBF4F0401E36
:10276000C1B2192000F005F86008BDE81040FFF77D
:10277000D1BF70B50C460546FFF7BCFED020FFF771
:102780008BFEFFF7FFFE50B92846FFF785FEFFF7E7
:10279000F9FE2046FFF780FEFFF7F4FE18B1FFF7C1
:1027A000CDFE012070BDFFF7C9FE002070BD2DE9F0
:1027B000F0411E4615460F460446FFF79BFE600695
:1027C000000EFFF769FEFFF7DDFE60B93846FFF740
:1027D00063FEFFF7D7FE00240CE0305DFFF75CFEE0
:1027E000FFF7D0FE20B1FFF7A9FE0120BDE8F08180
:1027F000641CE4B2AC42F0D3FFF7A0FE0020F5E782
:102800000D4808B5416941F001014161406900226C
:1028100000F00100009005210E20FEF797FC0E202D
:10282000FEF786FC002205210F20FEF78FFCBDE895
:1028300008400F20FEF77CBC0010024030B5B1B05C
:1028400000F07AFAFFF7D0FE02F036F93C21454855
:10285000FFF71EF93C214448FFF71AF900214348CD
:10286000FFF7CEFA0C214148FFF7CAFA404D15ACEC
:1028700095E80F0084E80F00002115A802F02BFE58
:102880003C4C10350DF1640CE06095E80F008CE8CD
:102890000F00002119A8103D02F01DFE2035206117
:1028A00095E80F000DF1740C203D8CE80F0000211D
:1028B0001DA802F010FE3035606195E80F000DF1A3
:1028C000840C303D8CE80F00002121A802F003FEAB
:1028D0004035A06195E80F000DF1940C403D8CE867
:1028E0000F00002125A802F0F6FD5035E06195E8C3
:1028F0000F000DF1A40C503D8CE80F00002129A819
:1029000002F0E9FD6035206295E80F002DAD85E805
:102910000F0000212DA802F0DEFD154960621C2287
:1029200070316846FDF75CFC0021684602F0E6FD68
:102930000F4920601C228C3107A8FDF751FC0021B3
:1029400007A802F0DBFD0A4960601C22A8310EA82E
:10295000FDF746FC00210EA802F0D0FDA06031B0CA
:1029600030BD000074030020BC0300202C030020B5
:102970005067000800000020F0B585B000200090EE
:102980000190029003902748816941F02001816104
:10299000816901F020010491816941F004018161A4
:1029A000816901F004010491816941F008018161AC
:1029B00080691D4E00F0080004900122332130464A
:1029C000FEF721FB194F4FF4704500222946384687
:1029D000FEF719FB3320009011200124CDE90104FA
:1029E0000320039069463046FEF718FA0220CDE92D
:1029F0000240CDE9005469463846FEF70FFA202020
:102A000000900B48CDE9010469463846FEF706FA06
:102A1000002205211720FEF799FB1720FEF788FBFF
:102A200005B0F0BD0010024000080140000C01405C
:102A30000000211010B596B000240F94109411944A
:102A4000129413941C2168461494FDF7E2FB202194
:102A500007A8FDF7DEFB2C482A49C0E9001441F61F
:102A60001F41C0E90241046144618461FEF78CFEAC
:102A700008B1FEF71AF84FF480500F900FA92248C2
:102A8000FEF7F0FE08B1FEF710F81F48FFF789F9CE
:102A900008B1FEF70AF8139413A91B481494FEF723
:102AA0003FFE08B1FEF701F86020CDE90004029472
:102AB0000394049405940022694613480694FFF792
:102AC0000AF908B1FDF7F1FF0C2269460E48FFF73D
:102AD00002F908B1FDF7E9FF0794089409944FF44F
:102AE00000500A94CDE90B4007A907480E94FEF761
:102AF000EDFD08B1FDF7D9FF0348FFF7C5F816B0A3
:102B000010BD0000002C01402C03002010B58CB03B
:102B100024216846FDF77DFB0024154809941349DC
:102B20000A94C0E900144FF6FF71C0E90241046144
:102B300084610120CDE90004CDE902040494CDE9CB
:102B40000540079469460A480894FEF7F9FE08B163
:102B5000FDF7ABFF099409A905480A94FEF7E0FDCB
:102B6000002801D0FDF7A1FF0CB010BD000400400B
:102B70007403002010B58CB024216846FDF749FB92
:102B800000241548099413490A94C0E900144FF62B
:102B9000FF71C0E90241046184610120CDE90004B4
:102BA000CDE902040494CDE90540079469460A483A
:102BB0000894FEF7C5FE08B1FDF777FF099409A94F
:102BC00005480A94FEF7ACFD002801D0FDF76DFF23
:102BD0000CB010BD00080040BC03002010B5114C23
:102BE0000F480C2120604FF4165060600020A06058
:102BF000E060C4E90401A061E0612046FFF7C6FA85
:102C000008B1FDF752FF2068C16841F01001C160B2
:102C100004490A22BDE81040D4390248FFF756BBE8
:102C200000380140D804002003E04721491E89B242
:102C3000FCD2401EF9D27047FEE7FEE770B50024D3
:102C40000021204600F0D5F80025002000F053F9BF
:102C50006D1CEDB2842DF8D3641CE4B2082CEFD3C4
:102C600070BD000010B5064C012211462046FEF74B
:102C7000CAF920460122BDE810400221FEF7C3B97F
:102C8000000801402DE9F0410024124E074680253E
:102C900025FA04F23A4002213046FEF7B4F9012247
:102CA00011463046FEF7AFF9002201213046FEF70B
:102CB000AAF9641CE4B2082CEAD30122114630467A
:102CC000FEF7A1F93046BDE8F04100220121FEF7F0
:102CD0009AB900000008014010B50B4C01220221F6
:102CE0002046FEF790F9012211462046FEF78BF9A7
:102CF000002202212046FEF786F920460022BDE888
:102D000010400121FEF77FB90008014010B5094CC1
:102D1000002202212046FEF776F9012211462046C4
:102D2000FEF771F920460122BDE810400221FEF7AE
:102D30006AB900000008014010B500204FF47A7213
:102D40000021491C9142FCD3401C9042F8D3FFF76C
:102D500089FFAE2000F0BEF8D52000F0BBF880203F
:102D600000F0B8F8A82000F0B5F83F2000F0B2F865
:102D7000D32000F0AFF8002000F0ACF8402000F0C5
:102D8000A9F8A12000F0A6F8C82000F0A3F8DA20E6
:102D900000F0A0F8122000F09DF8812000F09AF8D1
:102DA000CF2000F097F8D92000F094F8F12000F03F
:102DB00091F8DB2000F08EF8302000F08BF8A42092
:102DC00000F088F8A62000F085F88D2000F082F849
:102DD000142000F07FF8AF2000F07CF8BDE8104030
:102DE000FFF72CBF0246012000E05043491EFCD2F1
:102DF000704710B50C4640F0B00000F06BF81020A2
:102E000040EA141000F066F804F00F00BDE810402E
:102E100000F060B82DE9F0410746CE004000083EC2
:102E2000801E15464FF0FF38F1B2C0B2FFF7E1FF48
:102E30001148002400EB05152819A0F5805090F8E2
:102E4000000E00F058F8641CE4B2082CF4D308EB30
:102E50004700F1B2C0B2FFF7CCFF00242819A0F55B
:102E6000805090F8080E00F046F8641CE4B2082C7C
:102E7000F4D3BDE8F0810000266800082DE9F04792
:102E80001E4614008846814604D42B22FFF7C2FF59
:102E9000254603E02D22FFF7BDFF654200240A27E7
:102EA00014E0311B0A20491EFFF79CFFB5FBF0F030
:102EB000B0FBF7F107FB110208EB0400401CC1B2A4
:102EC00048463032FFF7A6FF641CE4B2B442E8D3B0
:102ED000BDE8F08710B50446FFF7FEFE7820FFF747
:102EE000D1FE0020FFF7CEFE2046FFF7CBFEBDE867
:102EF0001040FFF70BBF10B50446FFF7EDFE78203A
:102F0000FFF7C0FE4020FFF7BDFE2046FFF7BAFEE8
:102F1000BDE81040FFF7FABE2DE9F04704461F4612
:102F2000904689464FF07C56B0F91000FDF7E5FB5E
:102F30003146FDF7DEF9054608EB0701A1EB090074
:102F4000FDF7DBFB01463046FDF7D3F92946FDF7D7
:102F500078F9FDF7E0FB05B2A5812582E08942F210
:102F60001071284400B2E081884202DC4942884264
:102F700000DAE181B4F90E00FDF7BFFB6168FDF7EF
:102F8000B8F906462846FDF7B8FB2168FDF7B1F908
:102F90003146FDF756F9FDF7BEFB00B26082BDE891
:102FA000F0872DE9F041044617460E461846FDF716
:102FB000A4FBA168FDF79DF9054631463846FDF7AB
:102FC00092F92168FDF795F92946FDF73AF9FDF7E1
:102FD000A2FB00B26082BDE8F081000070B50D4A2E
:102FE000126850634FF480500B4C450031B10146DC
:102FF00001222046FEF707F8002205E001460022E4
:103000002046FEF700F8012229462046BDE8704020
:10301000FDF7F9BF2C030020000C014070B50D4AEC
:10302000126810644FF400400B4C451031B101465A
:1030300001222046FDF7E7FF002205E001460022BD
:103040002046FDF7E0FF012229462046BDE87040FA
:10305000FDF7D9BF2C030020000C01402E4C2F4E51
:103060002F4F86B00025322201A9E06803F0E2F874
:10307000322202A9206903F0DDF8322203A9606937
:1030800003F0D8F832226946A06903F0D3F832225F
:103090006946E06903F0CEF8322204A9206A03F001
:1030A000C9F80198FDF737FB0246022104230846C0
:1030B000FFF7E4FE0298FDF72EFB024604230221EF
:1030C0000320FFF7DBFE0398FDF725FB02460423F0
:1030D00002211846FFF7D2FE0423BDF90020082183
:1030E0000220FFF7CBFE0423424608210320FFF70E
:1030F000C5FE0423BDF9102008211846FFF7BEFEC7
:1031000035703D700A2207490748FFF7DFF80A20AB
:1031100002F0F2FDA7E700000000002028000020D8
:103120002900002004040020D804002094B00025C9
:103130008DF8045003F0BAF90F90142102A8FDF79E
:1031400068F83F4802903F480490142108A8FDF712
:1031500060F83D4808903D483D4C3E4E3E4F0DF1D5
:103160001A080990012201A9606A03F063F808B9FE
:103170008DF8045011AA10A9684601F0CFFB88B958
:10318000022300226946E06802F0A4FF0223002225
:1031900010A9206902F09EFF0223002211A9606994
:1031A00002F098FF13AA07A912A8FFF7D1F888B96F
:1031B0000223002212A9A06902F08CFF0223002240
:1031C00007A9E06902F086FF0223002213A9206A02
:1031D00002F080FF0EA90DA8FDF76EFCBDF9383096
:1031E000BDF934209DF9041008A8FFF795FEBDF93C
:1031F0003200401DFDF781FA0146BDF91C3002A8DE
:10320000009AFFF7CEFE4046FFF77DF80098B042E7
:1032100001DD012100E00021B84201D9012000E0D8
:103220000020014301D0ADF81A50BDF91A1008462C
:10323000FFF774F80A210FA802F084FD92E700005E
:1032400000009F43C3F5A83FCDCC4CBE6F1283BA9C
:103250000000002000002042000020C2FEE7000025
:1032600010B5502080F31188BFF34F8FBFF36F8FDD
:1032700003F022F918B104494FF080500860002093
:1032800080F3118810BD000004ED00E030B58FB070
:1032900028216846FCF7BDFF14210AA8FCF7B9FFF6
:1032A00001210804CDE900100024029402250491B4
:1032B000CDE907504FF4E01009906846FEF774F826
:1032C00008B172B6FEE70F20CDE90A054FF4806021
:1032D000CDE90C4002210AA80E94FDF769FF0028F1
:1032E00001D072B6FEE70FB030BD70470148FEF75F
:1032F00017BC0000A80500200148FEF711BC000023
:10330000740300200148FEF70BBC0000BC03002042
:10331000F0B50268164B174C174D4FF08047984296
:1033200005D0B84203D0A04201D0A84203D122F078
:1033300070064A683243984205D0B84203D0A04292
:1033400001D0A84203D122F44074CA6822434C69D8
:1033500022F08002224302608A68C2620A688262A6
:10336000984201D10969016301214161F0BD00006A
:10337000002C0140000400400008004010B501F09E
:103380001F030121046A99408C430462016A9A4038
:103390001143016210BD10B5846842EA032224F48F
:1033A0007F440A432243826010BD826822F070028B
:1033B0000A4342F0070181607047000030B5036A9C
:1033C000026A22F0010202624268846924F07305F5
:1033D0000C682C4323F002058B682B430A4DA8424E
:1033E0000BD123F00805CB6822F440722B434D69C2
:1033F00023F0040315438A692A43426084614968C3
:103400004163036230BD0000002C014030B5026A08
:10341000036A23F010030362436884690D6824F48F
:10342000E64444EA05248D6822F0200242EA0512AF
:103430000B4DA8420ED1CD6822F0800242EA05125F
:103440004D6923F4406343EA85038D6922F040020D
:1034500043EA85034360846149688163026230BD49
:10346000002C014030B5036A026A22F480720262C5
:103470004268C46923F4007324F073050C682C437C
:103480008D6843EA05230C4DA8420ED1CD6823F484
:10349000006343EA05234D6922F4405242EA0512D3
:1034A0008D6923F4806342EA05124260C461496871
:1034B000C163036230BD0000002C014030B5046AD6
:1034C000026A22F4805202624268C3690D6823F4E2
:1034D000E64343EA05238D6824F4005444EA0534A6
:1034E000064DA84204D14D6922F4804242EA851279
:1034F0004260C36149680164046230BD002C014030
:1035000010B5036A046A24F001040462846924F09B
:10351000F00444EA021423F00A020A4384610262BE
:1035200010BD10B5036A046A24F0100404628469B3
:1035300023F0A00324F4704444EA023243EA011168
:103540008261016210BD10B5406A0021C185C1844D
:10355000FEF7E5FC10BD70B5446A2068406994F838
:103560004110C0F3C0100025212904D118B1E58411
:10357000204600F08EF82068406994F84210C0F3AD
:103580008010222904D118B1E585204600F05AF8B0
:10359000606C40F0100060642046FEF7C0FC70BD17
:1035A00010B50146406A096809684FF000028906B3
:1035B0002ED4C28501680C3151E8003F23F480739A
:1035C00041E80034002CF5D10168143151E8003F86
:1035D00023F0010341E80034002CF5D101681431D7
:1035E00051E8003F23F0400341E80034002CF5D1BE
:1035F000202180F84210016B012909D101680C31AA
:1036000051E8003F23F0100341E80034002CF5D1CD
:103610004263016B012902D0FEF766FE10BD818D69
:10362000FEF744FC10BD10B5406A01214163016BF7
:10363000012902D0FEF759FE10BD818D4908FEF721
:1036400035FC10BD01680C3151E8002F22F4907256
:1036500041E80023002BF5D10168143151E8002F17
:1036600022F0010241E80023002BF5D1016B012972
:1036700009D101680C3151E8002F22F0100241E815
:103680000023002BF5D1202180F842100021016396
:10369000704701680C3151E8002F22F0C00241E868
:1036A0000023002BF5D1202180F84110704708B588
:1036B00090F84210222901D0022008BD82684FF400
:1036C00080539A4201D1016921B1816A9A421BD08B
:1036D0004AB10AE00268816A5268C2F308020A80AD
:1036E000816A891C08E0026972B10268526802F0BE
:1036F0007F020A70816A491C8162C18D491E0904DA
:10370000090CC18503D01BE002685268F1E701682B
:10371000CA6822F02002CA600168CA6822F4807276
:10372000CA6001684A6922F001024A61202180F8DA
:10373000421000214163026B012A03D0FEF7D4FD41
:10374000002008BD016301680C3151E8002F22F010
:10375000100241E80023002BF5D101680A68D20667
:1037600002D50A6849680091818DFEF79FFBE7E763
:1037700070B5044600680169E26821F440511143C4
:1037800001612169A0680843616908432168CA682A
:1037900041F20C639A430243CA6020684169A269FE
:1037A00021F44071114341611E492068884202D1D1
:1037B000FDF7C4FD01E0FDF7B1FD00EBC00101EB39
:1037C0000012606864218000B2FBF0F3B3FBF1F3F8
:1037D0006FF018067343B2FBF0F5B2FBF0F605EBA1
:1037E0008305322303EB0515B5FBF1F5B6FBF1F6C6
:1037F00005F0F00505EB0615B2FBF0F6B2FBF0F0B4
:10380000B0FBF1F06FF01802504306EB800003EBC1
:103810000010B0FBF1F0216800F00F002844886030
:1038200070BD00000038014038B5816204468285D1
:10383000002013466064222284F84220E56B1B4A74
:10384000AA62E56B1A4AEA62E56B1A4A2A63E26BDE
:1038500050630A462168E06B091DFDF787FA20686E
:10386000016840680090206948B120680C3050E839
:10387000001F41F4807140E80012002AF5D1206851
:10388000143050E8001F41F0010140E80012002A06
:10389000F5D12068143050E8001F41F0400140E8A5
:1038A0000012002AF5D1002038BD0000A135000823
:1038B00027360008573500080D4808B5006801682C
:1038C000C1F3001179B10168406800900848FEF723
:1038D000EEFA0848006840680749C0F10A0008701D
:1038E000064901200870BDE808400148FEF718BBF2
:1038F000D8040020200500202800002029000020F6
:10390000FEE7490050EAC12018BF04204A0D18BF45
:1039100040F0010040F2FF72B2EB515F08BF40F08F
:103920000200012808BF052070470907090E00287A
:1039300004DB00F1E02080F80014704700F00F0075
:1039400000F1E02080F8141D70472DE9F0414F1E72
:1039500000EBC7010446D1E9000115461E4637F0C9
:1039600006020DD02A463346FCF7E6FD7F1E04EB27
:10397000C703D3E90023FCF738FD37F00602F1D185
:10398000022F25D0042F13D0062F18BFBDE8F081D9
:103990002A463346FCF7D0FDD4E90A23FCF725FD7F
:1039A0002A463346FCF7C8FDD4E90823FCF71DFD81
:1039B0002A463346FCF7C0FDD4E90623FCF715FD83
:1039C0002A463346FCF7B8FDD4E90423FCF70DFD85
:1039D0002A463346FCF7B0FDD4E90223FCF705FD87
:1039E0002A463346FCF7A8FDD4E90023BDE8F041A0
:1039F000FCF7FBBC0122FCF79FBFFCF7F6BC0022E2
:103A0000134610461146FCF709BE0000024A00208A
:103A10001107FCF791BF000001FDFFFF02E008C89D
:103A2000121F08C1002AFAD170477047002001E038
:103A300001C1121F002AFBD1704700000149086034
:103A400070470000D40000202DE9F04D8D4F21F08B
:103A5000004A86B005460C46BA452ADBAAEB0700A9
:103A600028430AD08848824501DC1AD1CDB106B07E
:103A70002846BDE8F04DFFF7BDBF844A844B284679
:103A8000FCF75AFD07460E46824A834B28462146DC
:103A9000FCF752FD06B03A463346BDE8F04DFCF760
:103AA000A4BC0120FFF7CAFF06B0BDE8F04DFFF748
:103AB000A6BF7A48824542DABAF1795F0BDA284626
:103AC000FFF71FFF042808BFFFF7A0FF284606B036
:103AD0002146BDE8F08D2A460B461046FCF72CFD2A
:103AE000834602466E480E460B4606217844FFF791
:103AF0002CFF5A463346FCF71FFD804669488A462C
:103B00005A46334604217844FFF71FFF5A4633468E
:103B1000FCF712FD00223B46FCF767FC02460B4611
:103B200040465146FCF77AFD2A462346FCF704FD41
:103B300006B02A462346BDE8F04DFCF756BC2846A1
:103B400024F0004100223D463B46FCF7F2FC4FF0DA
:103B5000FF32FCF7F1FE0646024653480F460B467D
:103B600006217844FFF7F1FE32463B46FCF7E4FCC1
:103B7000CDE900014D4832463B4604217844FFF729
:103B8000E4FE32463B46FCF7D7FC00222B46FCF70E
:103B90002CFC834602913046394601F0C3FF804633
:103BA00043480D46504517DCDDE900015A46029BAB
:103BB000FCF734FD42462B46FCF7BEFC42462B4642
:103BC000FCF713FC0122FCF7B7FE304A304BFCF740
:103BD000ADFC304A304B4CE04FF0000A52460B46E9
:103BE0004046FCF702FCCDE9031052462B46104636
:103BF0001946FCF7A1FC32463B46FCF79AFCDDE98E
:103C00000332FCF70BFD06460F46DDE900015A467C
:103C1000029BFCF703FD83460091012230463946A2
:103C2000FCF78AFE194A1A4BFCF783FC06460F463E
:103C3000012240462946FCF77FFE5A46009BFCF7CE
:103C40007BFC32463B46FCF771FC06460F460122E0
:103C500050462946FCF770FE0E4DDFF858802A4684
:103C60004346FCF766FC32463B46FCF762FC2A46BC
:103C70004346FCF75EFC002CD8BF81F0004106B043
:103C8000BDE8F08D0000F03F0000F07F075C1433CA
:103C900026A6913C182D4454FB21F93F0000E03F3B
:103CA000883F00009E3F0000123F0000283F0000B8
:103CB0003333EF3FFB21E93F2DE9F84F04460D4632
:103CC00021F0004000917349814211DC7249884221
:103CD00001DC06D12CB120462946BDE8F84FFFF79C
:103CE00089BE6E48002DCCBF6D496E49BDE8F88F86
:103CF0006D49814211DD6D498142D8BF4FF0FF36D9
:103D00006DDD20462946FFF7FCFD042808BFFFF7BC
:103D10007DFE20462946BDE8F88F6549654F25F0B0
:103D20000045814233DD6449814219DD0026324677
:103D30004FF0804320462946FCF757FB80468A46D1
:103D4000012220462946FCF7F7FD00223B46FCF7FE
:103D5000EDFB42465346FCF761FC04460D463EE04F
:103D600001260022BA463B4620462946FCF73DFB89
:103D700080460F460022534620462946FCF7D6FBD4
:103D800042463B46FCF74AFC04460D4627E04B49B9
:103D900081421BDDDFF828A102260022534620467F
:103DA0002946FCF7C9FB00223B46FCF71EFB804678
:103DB0000F460022534620462946FCF7B7FB4246F1
:103DC0003B46FCF72BFC04460D4608E00326224642
:103DD0002B4600203B49FCF721FC04460D462246B9
:103DE0002B4610461946FCF7A7FB8B468246024637
:103DF0000B46FCF7A1FB07460246334888460B46B4
:103E000006217844FFF7A1FD52465B46FCF794FB80
:103E100082462E488B463A46434605217844FFF7B2
:103E200094FD3A464346FCF787FB02460B46002EBC
:103E3000504659460CDAFCF7D8FA22462B46FCF7D6
:103E40007BFB01B022462B46BDE8F04FFCF771BB6F
:103E5000FCF7CBFA22462B46FCF76EFB1C4A7A4451
:103E600002EBC603D3E90023FCF760FB22462B4696
:103E7000FCF75CFB174A7A4402EBC603D3E9002344
:103E8000FCF757FB009A002AB8BF81F00041BDE85B
:103E9000F88F0000000010440000F07F182D4454FB
:103EA000FB21F93FFB21F9BF0000DC3F0000203E71
:103EB0000000F33F0000F03F0000E63F00800340B9
:103EC0000000F83F0000F0BF2A3D0000E83C000081
:103ED000863C00004E3C00002DE9F04D9446CCF1AC
:103EE000000423F000464CEA0404594F46EAD47417
:103EF0009A46884621F00042BC4206D8454240EA34
:103F0000050442EAD474BC4204D9BDE8F04D6246CF
:103F1000FFF773BDAAF14055A5F17F6555EA0C0482
:103F20000BD0022404EAAA744A4DDFF82CE144EADB
:103F3000D87452EA000B04D00CE0BDE8F04DFFF756
:103F4000BBBE002C14BF012CBDE8F08D022C30D07C
:103F5000032C32D056EA0C0B0AD0BE4220D1BA4212
:103F600009D126F0804622F080423346114617E000
:103F700000291ADB25E0DFF8E4B0FB44002C04BF85
:103F8000DBE90001BDE8F08D012C02BFDBE9000197
:103F900081F00041BDE8F08D022C0AD0032C0CD03A
:103FA000BA4212D1B8F1000F0BDA2A482C49BDE809
:103FB000F08D28462B49BDE8F08D28467146BDE8B6
:103FC000F08D24482849BDE8F08D921B12153C2A3B
:103FD000C4BF204F244E10DCBAF1000FBEBF12F157
:103FE0003C0F00273E4608DB6246FCF717FB21F03A
:103FF0000041FFF761FE07460E4694B1012C08BF51
:1040000086F000460DD0194A194B022C384631462D
:1040100015D0FCF78BFA2A46BDE8F04D114BFCF7A2
:1040200085BA0022134638463146FCF79DFC04BF92
:104030000220FFF703FD38463146BDE8F08DFCF75E
:1040400075FA2A46BDE8F04D064BFCF772BA00003F
:104050000000F07F182D4454FB2109C0E23B000012
:10406000FB21F9BFFB210940FB21F93F075C143319
:1040700026A6A13C08B560B120208DF800002820BC
:104080008DF8010030208DF8020038208DF80300F3
:1040900004E0A32204216846FCF7B4F86A46042130
:1040A00040F69E2001F0E8F900F01EFF08BD000078
:1040B0003EB5044602208DF80000CA208DF80100AC
:1040C000E3208DF8020009208DF803006A460421E0
:1040D000682001F0D1F9A3208DF80000610609D510
:1040E000C0218DF80110C8218DF80210C2218DF871
:1040F000031005E08DF801008DF802008DF8030033
:1041000014F4C07F09D0C4218DF80410CC218DF89F
:104110000510C6218DF8061005E08DF804008DF815
:1041200005008DF806008DF808008DF807008DF861
:1041300009006A460A2140F6A72001F09DF9A00770
:104140004FF0D80503D020208DF8000001E08DF855
:1041500000506A46012140F6B62001F08DF9A00614
:1041600001D5012000E0002000F08EF814F4C07F9B
:104170001ED0E0050AD5B2208DF800008B208DF806
:104180000100B6208DF802009B2009E0B0208DF8D8
:10419000000080208DF80100B4208DF802009020EE
:1041A0008DF803006A46042140F6A22001F064F96C
:1041B000E1074FF40B6022D0F8218DF800106A4619
:1041C000012101F059F9FA21072000F077FA0720C0
:1041D00000F042FA012000F05FFA642000F002FBD8
:1041E0004FF4FA7000F00EFBC821254800F0FCF9EE
:1041F000282000F011FA0A2000F01EFA05E08DF8E0
:1042000000506A46012101F037F9A00703D5D920F3
:104210008DF8000001E08DF800506A46012140F25F
:104220003D7001F029F9600701D5012000E0002070
:1042300000F048F8E00601D5012000E00020FFF77B
:1042400019FF104D44F00800688100F04DFE002079
:10425000A873600601D50620A87314F4C07F02D0AD
:10426000A87B801DA87314F0140F02D0A87B103017
:10427000A873A00702D0A87B001DA87300203EBD34
:1042800009E3CA02F00500200EB54FF4976310B1A0
:1042900006A107C901E008A207CA8DE807006A461F
:1042A0000921184601F0E8F80EBD0000B8AAB38D48
:1042B000B4980D355D000000B8AAAAAAB088C3C59D
:1042C000C700000008B560B1C0208DF80000C22012
:1042D0008DF80100C4208DF80200C6208DF803007F
:1042E00004E08B2204216846FBF78CFF6A46042118
:1042F00040F6982001F0C0F800F0F6FD08BD00007F
:10430000C8234FF48062024940F6F63000F0CEBC7C
:10431000686E00082DE9FF4F89B01746DDE9165297
:104320000024544E884681462C80A246B07B6946C4
:1043300000F068FD4FF0FF3B18B158460DB0BDE8E6
:10434000F08F708910F0140F4CD0BDF800109DF85C
:10435000022049BA090441EA02239DF803100B43E5
:104360003B60BDF804109DF8062049BA090441EAF3
:1043700002229DF807101B140A437A60BDF808104A
:104380009DF80A4049BA090441EA04219DF80B400E
:1043900012142143B960BDF80C409DF80EC064BAF8
:1043A000240444EA0C2C9DF80F4009144CEA040C38
:1043B000C7F80CC04FEA2C475B43494302FB02326B
:1043C00007FB071111441024A1F17061B1F1007FC6
:1043D00004D900F089FDA5F800A0AEE7298841F4D2
:1043E000807129804206694611D50A19A41D1388D7
:1043F0005BBAA8F8003053885BBAA8F802309288FC
:1044000052BAA8F804202A8842F008022A8010F440
:10441000C07F11D00A19A41D13885BBAA9F8003017
:1044200053885BBAA9F80230928852BAA9F80420DE
:104430002A8842F070022A80800716D00C44E07867
:1044400000F0C00500F03F016078C00706D0C80842
:1044500001F007013268491C02B1904760780007FB
:1044600003D5716809B1A80988470C9800F02AFAA9
:10447000002063E7F005002030B5044613A285B0A4
:1044800007CA8DE807004FF0FF35C82C16D8C820A2
:10449000B0FBF4F1491E080A8DF80C008DF80D10E0
:1044A00003AA022140F2162000F0E6FF30B96A4666
:1044B0000C2140F6C12000F0DFFF10B1284605B006
:1044C00030BD054884810020F9E70000FEF2ABC44E
:1044D000AAF1DFDFBBAFDFDFF00500202DE9FF41F0
:1044E00004463CA004F00303006802903AA0006870
:1044F00003903AA006683AA0056802A8C15C8DF84E
:104500000010C4F3C101425C8DF80120C4F3811294
:10451000805C8DF8020003A8C35C8DF80430415C18
:104520008DF80510805C8DF806006A46032140F284
:10453000264000F0A1FF4FF0FF37E0BB01AA0321A6
:1045400040F22A4000F098FFA8BBCDE90065600763
:104550000BD59DF8000040F001008DF800009DF89B
:10456000040040F001008DF80400A0060BD59DF872
:10457000010040F001008DF801009DF8050040F0B9
:1045800001008DF80500E0050BD59DF8020040F014
:1045900001008DF802009DF8060040F001008DF842
:1045A00006006A4603214FF4886000F065FF10B9E9
:1045B00001AA032100E004E040F2314000F05CFF7A
:1045C00018B1384604B0BDE8F081064804810020E7
:1045D000F8E700004CCD6C000CC92C003656760074
:1045E00026466600F00500204FF47A7290FBF2F048
:1045F00008B54843010E8DF80010010C8DF801102C
:10460000010A8DF802108DF803006A4604214FF468
:10461000AE7000F031FF08BD0521B0FBF1F008B528
:10462000010A8DF800108DF801006A4602214FF44E
:10463000AD7000F021FF08BD0521B0FBF1F008B519
:10464000010A8DF800108DF801006A4602214FF42E
:10465000AC7000F011FF08BD08B500218DF8001006
:10466000C10702D030218DF80010810705D59DF8D3
:10467000001041F00C018DF80010400705D59DF8A1
:10468000000040F003008DF800006A4601214FF45D
:10469000A47000F0F1FE08BD08B560B1042800D98F
:1046A0000420401E8DF800006A46012140F24F10A0
:1046B00000F0E2FE08BD0120F3E700002DE9FC4117
:1046C000054640074FF0FF367CD0B1F5C86F79D86A
:1046D0000846FCF71BF83E49FBF73DFE074601A8DC
:1046E00000F034FA9DF80400022806D004280DD00A
:1046F00008282ED0102865D134E00E213846FBF76B
:1047000068FEFCF721F884B2324907E00D213846F3
:10471000FBF75FFEFCF718F82F4984B23846FBF729
:10472000E8FDFCF711F8210A8DF8001080B28DF831
:104730000140010A8DF802108DF80300E8076C466D
:1047400020D0224602214FF4EA7000F095FEC8BB4B
:1047500011E00C213846FBF73CFEFBF7F5FF84B275
:104760001E49DBE70B213846FBF733FEFBF7ECFF76
:1047700084B21B49D2E7A21C02214FF4927000F0D0
:104780007BFEF8B9A8070DD56A4602214FF4EC70FC
:1047900000F072FEB0B9A21C02214FF4947000F038
:1047A0006BFE78B9680710D56A4602214FF4EE70A7
:1047B00000F062FE30B9A21C02214FF4967000F0A6
:1047C0005BFE10B13046BDE8FC810020FBE7000035
:1047D00000004843000040460000C045000040453E
:1047E0000000C0440521B0FBF1F008B5010A8DF8C6
:1047F00000108DF801006A4602214FF4EF7000F0BE
:104800003BFE08BD0521B0FBF1F008B5010A8DF8AB
:1048100000108DF801006A4602214FF4ED7000F09F
:104820002BFE08BD00B5024600F00DF80346D01C73
:1048300000F009F843EAC003901D00F004F843EAD1
:10484000801080B200BD90F90010002902DD4FF009
:104850000000704702DA4FF00400704790F9011031
:10486000002902DD4FF00100704702DA4FF0050029
:10487000704790F90200002802DD4FF002007047F7
:1048800002DA4FF0060070474FF007007047FCF760
:10489000CDFBFEF7FBFCFEF76FF8FDF7B1FFFEF76F
:1048A000C9F8FEF733F9FEF765F9FEF797F9FDF75A
:1048B000C5FF00F00BFEFEE701460020842900D072
:1048C000C81C7047704700002DE9F041124C20F0E1
:1048D0000101002594F8240010B10020BDE8F0810A
:1048E000A07A4FF0FF3668B10840277C20748842D8
:1048F00000D0354641B1012001F0E8F800F0F4FAAB
:1049000038B127743046E9E7207D00B1012001F07D
:10491000DDF82846E2E70000380000202DE9F74FD7
:104920008EB00CA902A8CDE900010BAB03AA09A91E
:1049300007A8FFF7EFFC18B1012011B0BDE8F08F18
:10494000BDF80800C0057DD50398FBF7D6FE6FF0D3
:104950001D042146FBF73DFD82460498FBF7CDFE82
:104960002146FBF736FD81460598FBF7C6FE21463A
:10497000FBF72FFD80460698FBF7BFFE2146FBF7AD
:1049800028FD054601215046FBF723FD064641461A
:10499000FBF7AFFC04464FF040414846FBF7A9FC4B
:1049A00007462946FBF7A5FC2146FBF74AFCFBF727
:1049B000DFFEFFF749F84FF0663B5A463D4BFBF7E9
:1049C000BBFDFBF7E8FE0E99086001214046FBF7AE
:1049D00000FD41460090FBF78CFC044638464946F2
:1049E000FBF787FC2146FBF77EFC4FF07E51FBF77F
:1049F00028FCFBF7BDFE07460C4630464946FBF750
:104A000078FC064629460098FBF773FC3146FBF715
:104A100018FCFBF7ADFE3A462346FFF75DFA5A460F
:104A2000244BFBF789FDFBF7B6FE0F99086029467A
:104A30000846FBF75EFC074641460846FBF759FC73
:104A4000064600E034E049460846FBF752FC0446BF
:104A500051460846FBF74DFC2146FBF7F2FB314679
:104A6000FBF741FC3946FBF73EFCFBF781FE0646AF
:104A70000C4629465046FBF73CFC05464146484655
:104A8000FBF737FC2946FBF7DCFB0121FBF7A1FC18
:104A9000FBF76EFE32462346FFF71EFA5A46054BD9
:104AA000FBF74AFDFBF777FE10990860002044E70A
:104AB000022042E766A64C4010B500F065F808B148
:104AC0000A2010BD782000F07BFC10F0FF0F01D011
:104AD000012010BD7820FFF7F7FE10F0FF0F01D086
:104AE000022010BDC82000F02BFC10F0FF0F01D0F9
:104AF000032010BDFFF704FC10F0FF0F01D00420CD
:104B000010BD1148FFF78EFEFFF7E8FC10F0FF0F15
:104B100001D0052010BD40F27310FFF7C9FA10F064
:104B2000FF0F01D0062010BDC820FFF7A5FC10F034
:104B3000FF0F01D0072010BD012000F027FB10F06F
:104B4000FF00F8D0092010BD640000200D494A7A0A
:104B500042B1012A08D0022A0FD0032A0FD04FF009
:104B6000FF307047022200E004220270C97C11B1BC
:104B70001106C90D0170002070470822F5E71022C8
:104B8000F3E70000380000202DE9FC41464C80206E
:104B90008DF8000020686B460122817C60680078F7
:104BA000FDF705FE4FF0FF37002875D16420FCF7B4
:104BB00015F900258DF8005020686B460122817C94
:104BC00060680078FDF7F3FD002865D120686B462A
:104BD0000622817D60680078FDF75CFD00285BD1CE
:104BE0009DF805009DF80310C007400F01F001017A
:104BF00040EA41009DF801104FF0010601F001016B
:104C0000084304D0012831D0022810D044E02068A5
:104C10006B460122C17860680078FDF73BFDD8BB88
:104C20009DF8000010F00F0036D004281ED0E57467
:104C3000FF2004F80A0F4FF6FF7104F8020C04F885
:104C4000010C6070A180A0712072A6702676657636
:104C5000E572A572E56025616561A576E576A583B7
:104C60004FF4FA6000F0CEFAB0B901E0E674DFE785
:104C7000022000F0E9F978B92A2000F02BFB58B99E
:104C8000322000F05DFB38B90020FFF71DFE18B997
:104C9000002000F00DFA10B13846BDE8FC8100207C
:104CA00000F08EFB0020F8E7380000202DE9FF4FD0
:104CB000DFF89480064685B098F8250015460F4623
:104CC0004FF0FF39B0BBAFB3002420E0301B1028F9
:104CD00000DD102080B283463A19014692462046F4
:104CE00000F0CAFB30BB6A465946204600F0D2F8B5
:104CF00000BB50465A466946FBF796FA20B16FF062
:104D0000010009B0BDE8F08F04EB0B0084B2B4429F
:104D1000DCD3280A8DF810008DF81150D8F8000067
:104D2000444604AB817ED8F8040002220078FDF7E7
:104D30003EFD08B14846E4E7012084F825000898C4
:104D4000E0840020DDE70000380000202DE9F84372
:104D500005464FF0FF39282844D80727284C00265D
:104D60007DB1012000F084FA20208DF800004FF082
:104D70000108012D17D0052D18D88DF801800520C8
:104D80001FE0002000F074FA8DF800608DF80170CB
:104D900020686B460222817C60680078FDF707FD81
:104DA00000BB267529E08DF80160E8E7142D04D8D2
:104DB00002208DF801000A2003E003208DF8010095
:104DC000142000F087FA9DF801006B4607EB801075
:104DD0008DF8010020680222817C60680078FDF770
:104DE000E6FC10B14846BDE8F8830820A07226739F
:104DF00084F814800020FFF767FD0020F3E700002F
:104E0000380000202DE9F843214C0646174694F857
:104E1000240089464FF0FF3890B3A07A80B3206811
:104E20006B460222817A60680078FDF733FC38BB5C
:104E3000BDF8000045BAB54202D2002038701FE02C
:104E400060684188B5EB510F11D9216800786B4635
:104E5000497C0122FDF71EFC90B99DF80000C006B8
:104E600005D500F041F86FF00100BDE8F883206837
:104E7000F2B24B46C17A60680078FDF70BFC08B1CE
:104E80004046F2E7B5FBF6F0401E38700020ECE734
:104E900038000020F8B516000D464FF0FF371FD040
:104EA000104CA17AE1B1010A8DF80010C0B28DF862
:104EB0000100411960684289914211D82168007847
:104EC0006B46097E0222FDF772FC48B92068EAB2FF
:104ED0003346417D60680078FDF7DCFB002800D098
:104EE0003846F8BD38000020F8B5564C4FF0FF3674
:104EF000A07A00287DD000258DF8005020686B46F0
:104F00000122C17B60680078FDF751FC002870D158
:104F100020686B460122417960680078FDF747FC04
:104F2000002866D120686B4601220179606800780C
:104F3000FDF73DFC00285CD194F82400E0B30C2080
:104F40008DF8000020686B460122017960680078C6
:104F5000FDF72DFC002872D13220FBF73FFFC02067
:104F60008DF80000A07AC00702D0E0208DF8000084
:104F700020686B460122017960680078FDF717FC14
:104F800000285CD1607C18B102208DF8000001E09F
:104F90008DF8005020686B460122C17B6068007864
:104FA000FDF705FC28BB8DF8005020686B460122F8
:104FB0004179606800783EE0FFE704208DF800004A
:104FC00020686B460122017960680078FDF7EFFBED
:104FD00078B9A07C90B9A07AC0070FD05FF06000CC
:104FE0008DF8000020686B46012201796068007826
:104FF00000E024E0FDF7DBFB08BB01E04020EFE729
:105000003220FBF7EBFE607C18B101208DF8000028
:1050100001E08DF8005020686B460122C17B60687A
:105020000078FDF7C4FB50B92068064B0122417996
:10503000606810330078FDF7BAFB002800D03046D6
:10504000F8BD00003800002038B5184C4FF0FF358F
:10505000A17A19B3022806D0042806D008280ED059
:1050600010281BD10DE0002000E008208DF8000082
:10507000607A9DF80010B0EBD10F04D005E010204D
:10508000F4E71820F2E7002038BD20686B460122C3
:10509000C17960680078FDF78AFB08B1284638BD01
:1050A0009DF80000C0086072EDE7000038000020A5
:1050B000F8B5354C0546A07CA84201D10020F8BDCA
:1050C00031484FF0FF366B46D0E900104FF0010237
:1050D0000979007835B3FDF7DDFA70BB9DF8000063
:1050E0006B4620F020008DF8000020680122017935
:1050F00060680078FDF75BFBF8B90320FBF76EFEF4
:1051000002208DF8000094F8220078B382202BE072
:1051100020686B460122017D60680078FDF747FB3F
:1051200058B92EE0FDF7B6FA38B9A07AC0079DF855
:10513000000003D040F0200002E00CE020F020004E
:105140008DF8000020686B460122017960680078C4
:10515000FDF72DFB08B13046F8BD0320FBF73EFEFE
:1051600094F8220000B180208DF8000094F823000C
:105170000028CDD09DF8000040F030008DF80000F0
:10518000C6E7A5749AE700003800002038B51C4C2B
:1051900094F8241081421DD0002500B394F8250016
:1051A000D0B1002000F092FC0020FFF781FFE08CDE
:1051B00000F0C6F88DF8005060686B460122007858
:1051C0002321FDF7F4FA012084F8240000F07EFC8E
:1051D000FFF78AFE002038BD4FF0FF3038BD0020B9
:1051E00000F074FC207C8DF8000060686B460122A2
:1051F00000782321FDF7DBFA84F82450E8E700006B
:105200003800002038B5194C4FF0FF35A17A31B382
:10521000FA2809D0B0F5FA7F08D0B0F57A7F0FD020
:10522000B0F5FA6F1BD10DE0002000E008208DF8EA
:105230000000207A9DF80010B0EBD10F04D005E0FB
:105240001020F4E71820F2E7002038BD20686B46F4
:105250000122817960680078FDF7A9FA08B1284633
:1052600038BD9DF80000C0082072EDE7380000202E
:1052700038B5174C054694F82300A84201D1002008
:1052800038BD0DB1302000E000208DF80000A07C7A
:1052900028B19DF8000040F002008DF8000094F85D
:1052A000220028B19DF8000040F080008DF8000039
:1052B00020686B460122017D60680078FDF777FA6F
:1052C00010B14FF0FF3038BD84F82350D7E700000D
:1052D0003800002038B5194C4FF0FF35A17A31B3B2
:1052E000BC2801D3012010E0622801D302200CE089
:1052F0002A2801D3032008E0142801D3042004E065
:105300000A2801D3052000E006208DF80000E07A8D
:105310009DF80010884201D1002038BD20686B46FE
:105320000122817860680078FDF741FA08B12846CB
:1053300038BD9DF80000E072EEE700003800002064
:10534000F8B51E4D04464FF0FF37A87A48B395F8DC
:10535000240030BB287D4FF47A7648B164B1282C04
:1053600003D8E0B2FFF7F2FC26E00020FFF7EEFCE6
:10537000042C05D2042406E00020FFF7E7FCF9E73F
:10538000B44200D93446B6FBF4F0401E8DF800005C
:1053900028686B460122417868680078FDF707FAB3
:1053A00008B13846F8BD9DF80000401CB6FBF0F08F
:1053B000E8814008FFF78EFF0020F8BD380000208C
:1053C000F8B5054610F0700F4FF0000601D001202F
:1053D00004E015B18DF8006002E040208DF8000077
:1053E000244C6B4601222068817C60680078FDF7C0
:1053F000DEF94FF0FF3760BB9DF8000020F0400061
:1054000020738DF80060680602D404208DF8000037
:10541000A80605D49DF8000040F002008DF80000B9
:10542000E80605D49DF8000040F001008DF800006A
:10543000280705D49DF8000040F038008DF80000E2
:1054400020686B460122C17C60680078FDF7AFF9E7
:1054500010B1A6723846F8BD25B1082D02D0002043
:10546000FFF706FFA57226753220FBF7B7FC002078
:10547000F8BD000038000020F8B516000D464FF0CA
:10548000FF371FD0104CA17AE1B1010A8DF800104E
:10549000C0B28DF80100411960684289914211D86B
:1054A000216800786B46097E0222FDF780F948B931
:1054B0002068EAB23346417D60680078FDF777F9ED
:1054C000002800D03846F8BD3800002010B500F0A4
:1054D000A5FC002010BD38B5D0E9011204683AB12E
:1054E000C3682BB100200090204600F07BFD38BD42
:1054F0002046BDE83840002200F050BD7FB50D4683
:1055000004464169B0F9080081B1A16971B1FFF7A2
:10551000D3F9D4E905128DE80700D4E900102B4631
:10552000226900F08AFF039004B070BDFFF7C4F950
:1055300003A9CDE90001208A2B4682B2D4E90010EC
:1055400000F04EFF012801D00020EDE70398EBE7C3
:105550002DE9F041184C0F46054666692068001D8C
:1055600000F006FB38B9206890F82C100120884024
:10557000A1698143A161681C07D137B12168BDE8E9
:10558000F0410E48091D00F037BB20683544B54294
:105590004560216805D2A068BDE8F041091D00F012
:1055A00013BB6068091D00F00FFB206B854200D221
:1055B0002563BDE8F081000074000020DC060020B7
:1055C0002DE9F041054600F023FB2E4C2069401CDC
:1055D000206120682C4F10B1E06940B32DE02560B8
:1055E0002069012829D1002606EB860007EB800000
:1055F00000F0DCFA761C072EF6D323488C3000F03E
:10560000D5FA2148A03000F0D1FA1F48B43000F09C
:10561000CDFA1D48C83000F0C9FA1B48DC3000F054
:10562000C5FA19488C3060601430A06005E020682D
:10563000E96AC06A884200D82560E06A401CE062DE
:10564000E96A0120A26988401043A06101EB810052
:1056500007EB8000291D00F0CFFA00F0F9FAE069AD
:1056600000280CD02068E96AC06A884207D207493E
:105670004FF080500860BFF34F8FBFF36F8FBDE8CE
:10568000F0810000740000200006002004ED00E01E
:1056900030B4026C0B46002A0BD0C1681144C160C3
:1056A0004468A14201D30168C16030BC1846FAF7D2
:1056B00097BD30BC70472DE9F041856B1746044615
:1056C0000026026C82B1C7B1E068FAF789FDE16893
:1056D000206C091AE1602268914202D26168081ABE
:1056E000E060022F16D017E02068A8B9606800F0CB
:1056F00047FF0646002060600EE0A068FAF770FDE4
:10570000216CA0680844A0606168884204D32068C6
:10571000A06001E005B16D1E6D1CA5633046BDE8BB
:10572000F08110B5044690F8510058B101280CD012
:1057300002280FD0502080F31188BFF34F8FBFF3A2
:105740006F8FFEE7206B00F097FA2046BDE810400F
:1057500000F092BA10BD00000F4840F6AC5142076D
:1057600005D0C01D0C4A20F00700821A891A0B4A86
:1057700000230144C2E900030839103A21F007016F
:1057800011604B600B600B1AC0E9001393604FF07F
:1057900000405360D0607047F0060020C000002039
:1057A000144E154CA6F1C8074FF08058DFF84C9006
:1057B00012E000BF00F02CFAF068C568281D00F068
:1057C000D7F92069401E2061E068401EE06000F0CB
:1057D0003FFA2846FFF7A5FFE0680028EAD13868BD
:1057E0000128F9D9C9F80080BFF34F8FBFF36F8F3D
:1057F000F2E70000C80600207400002004ED00E07D
:105800000346009829B10260C0E90F31012100F080
:105810001DBC0060F8E72DE9F0470E46DDE909847C
:105820001746824691009946089DA522206BFAF7FB
:10583000E9FC6FF00301206B01EB8701084420F0C5
:105840000707780707D0502080F31188BFF34F8FE8
:10585000BFF36F8FFEE72218315C82F83410315CA1
:1058600011B1401C1028F6D3002684F84360072DA0
:1058700000D30625E562C4E91156201D00F0A1F908
:1058800004F1180000F09DF92461C5F1070064627D
:10589000A061E66484F850604A465146384600F0FC
:1058A00003F92060B8F1000F01D0C8F80040BDE84E
:1058B000F087000030B5114900E011460A688242C5
:1058C000FBD34B685C18844203D14068184448609D
:1058D000084643681C18944209D1084C103C2468BF
:1058E000A24209D052681A4442600A6812680260F3
:1058F000814200D0086030BD0460F9E7C00000209C
:1059000010B5044600F084F9A06B28B15FF00004E4
:1059100000F09EF9204610BD0124F9E706484168D1
:10592000096829B14168C968C96849680163704755
:105930004FF0FF31FAE7000074000020084840688B
:10594000401C4FF0500080F3118804D0BFF34F8FFC
:10595000BFF36F8FFEE7BFF34F8FBFF36F8FFEE78D
:10596000C80000202DE9F041044600F051F994F9F7
:10597000455004F1240609E0606A48B1304600F061
:105980004BFE08B100F02CFA6D1E6DB2002DF3DC59
:105990004FF0FF3684F8456000F05AF900F038F90E
:1059A00094F9445004F1100709E0206948B13846E1
:1059B00000F032FE08B100F013FA6D1E6DB2002D3A
:1059C000F3DC84F84460BDE8F04100F041B9000028
:1059D0002DE9F0410546002700F056FA314E3068B7
:1059E00008B9FFF7B9FEF06805424BD1C5B30835D9
:1059F00068070ED005F00700C0F1080005446807ED
:105A000007D0502080F31188BFF34F8FBFF36F8F03
:105A1000FEE72DB37068854234D822481030014625
:105A20000C6801E020460C466168A94202D2216858
:105A30000029F7D131688C4224D0076821680160C1
:105A400060680837411B10290FD96019420708D038
:105A5000502080F31188BFF34F8FBFF36F8FFEE7A5
:105A600010E041606560FFF725FF61687068401ACB
:105A70007060B268904200D2B060F06801430020CC
:105A8000C4E9000100F002FE780707D0502080F33F
:105A90001188BFF34F8FBFF36F8FFEE73846BDE825
:105AA000F0810000B000002010B5031F4FF080749B
:105AB0001C601B1F21F001011960191F024B0B60B4
:105AC000143940380A6010BD3D590008F8B5144C2F
:105AD0000146224694F82460D2E9000200235D1EAC
